:4000000080673030303030307e3030307e3030307e3030307e3030307e3030307e3030307d03417e7d03847e7d02f87e7e3030307e3030307e3030307e3030307e30303069
:4000400030303030303030303030303030303030303030303030303030303030303030307e3030307e303030711062e38770ef62e33841fefb500b4e62e33855f80055f940
:4000800000711062e00270ef62e338627105627505627905627d057c0291500055070b3c070ba0053f078ff8500157ca5507003c0702a00b08283f07187509008ff27110d5
:4000c00070ef62e000711062e00070ef62e2007c067d8fff50107f3030303030303030303030303030303030303030303030303030303030303030303030303030303030dd
:4001000030303030303030303030303030303030303030303030303030303030303030303030303030303030303030303030303030303030303030303030303030303030bf
:40014000303030303030303030303030303030300001001000020020270025c72600230021c722002b0429632a006028660063056500e600e700d600b000b100b200b333aa
:40018000b433b533b600b855b900ba10bb33bc33bd00be00ff242125112645202121112244282029012a4061006900600062006733683363006600d100d300d000d200e187
:4001c000b9e200df13de02dd00ff000070ef62000071106200336201cc70ef6203cc620233711062020062030070ef62010062040071106204006205ff70ef6207ff62069b
:4002000000711062060062070070ef620500620800711062087f62098070ef620b80620a007110620a00620b0070ef620900620c007110620c00620d0070ef620f00620eff
:40024000007110620e00620f0070ef620d00621000711062100062110070ef621300621200711062120062130070ef621100621400711062140062150070ef6217006216be
:4002800000711062160062170070ef62150070ef7f55080055097f550a807c02a17c01cc7f1070ef500067500157587c02bc500167500157957c02bc70ef207f3802100839
:4002c0004f56fc00d00456fc01182070ef62e30010082839ffa01f4f48fc01a003711054fd18207509001008284f59fd610018207509008fd738fc7f7d07647e43e1047f42
:4003000041e1fb7f432b017f412bfe7f60297f602a7f5d2a7f4f38025d2b085d2a085d285d2a5401500049f701a0035001540070fe412bfe18602a18602b187e5d285d2a92
:400340007f7e43e1017f41e1fe7f4323017f4123fe7f60217f60227f5d227f4f5d22084123fe71105d210862210070ef5d205d22085200602271105201602170ef43230163
:400380001838fe7f7e43e1027f41e1fd7f4327017f4127fe7f60257f60267f5d267f4f5d26084127fe71105d250862250070ef5d245d26085200602671105201602570ef08
:4003c0004327011838fe7f081028b00420187f903c201875dff2748fef303132333435363738394142434445460867676767210fffe7901918210fffe090127f4b9fea5b62
:400400009fe77f5200a0069004758ff87f905f0867676767210f903818210f40404090307f904b0867676767210f900918210f40404090017f082608805108600818210fbf
:4004400029102a086008530840218f530860087f082608802e08205108600818210f29302a08600853084021af530860087f08260880510860082609f0510971106008701e
:40048000ef2e084051086008401057ff2e08505108600840405d08082608c0510860084040402e08505108600840402608c051086008182108a00479bfd3202e097f510937
:4004c0007110600870ef187f2609802e097f260a80510971106008510a600970ef50fa906350fa905f50039f4c5052905750039f44905f905d905b50039f3a505a9045506d
:40050000029f32505a903d50089f16505a903550019f0e505a902d50069f06500e9f02502c9efe50089efa500c9ef650039ef2505a90117f80c094d4210310fff74f03ffce
:40054000209ede7f900c78bffc7f08193a7c010101010871105de070ef21073905d006ffe978bffe187f1059009fcd203dfe00b005500080113dfe06d00752fe15fe80065b
:40058000500617fe059e867bffbfe27f4f1052fd59fc9fa4203dfa00b005500080113dfa06d00752fa15fa8006500617fa059e5d7bfbbfe27f210308ff7a03009e633dfe04
:4005c00000b005502080133dfe09d00952fe7856fe00800617fe0850079e3218787bffbfd77f4f52fd210308ff4a03fc9e333dfa00b005502080133dfa09d00952fa78561c
:40060000fa00800617fa0850079e0218787bfbbfd77f4f080850409e0856000156010852003b01d0055000800350ff9de07b01bfef77003d0009bfe51818500c9de37f00ac
:4006400010181c1e1f1f001008040201004f3803540250409dcb56000056010852003d0200b005ffda8003ffdd9da27b01bfee77003d0007bfe438fd500c9da57f104f3801
:400680000b5603005602005601005600005605005604007101107c04c87c03047c02fc207c076c80b777010f000050e8130152003180530450831a04d07a560100560000fa
:4006c00077030f020050c6130352023180530450801a04d0075603005602003d0400b0133d0501b00e5202085203087c083538fe800c5202085203087c07cd38fe500008a1
:40070000500a085202085203085a060606065107085106087c094d38fa10570250007c0538205a060606061051070851065c187c0403203c0000b0243c0164b01f3d0400c6
:40074000b00e3d0500b00956050156040080075605005604005501005500008f498fff38f5208fff0876010e0000187e107c034a7c038d20500110575208281875090028c2
:40078000207353065d0222066002500110575608281875090028207353065d0222066002500110575008281875090028207353065d022206600250011057540828187509f6
:4007c0000028207353065d02220660027f104f5001105750082818750900285306205d022a0660025001105754082818750900285306205d022a0660025001105752082820
:400800001875090028207353065d0222066002500110575608281875090028207353065d022206600252fc107c03552052fc107c039820207f104f500110575008281875aa
:40084000090028207353065d0222066002500110575408281875090028207353065d02220660025001105752082818750900285306205d022a0660025001105756082818eb
:40088000750900285306205d022a06600252fc107c03552052fc107c039820207f1050007c039850007c0355207f104f5001105750082818750900285306205d022a0660ab
:4008c00002500110575208281875090028207353065d022206600252fc107c035520207f104f5001105754082818750900285306205d022a066002500110575608281875aa
:40090000090028207353065d022206600252fc107c039820207f104f7c091d207f50005303530455021066fc6cfb6b036b0451031bfa51041bf9c009530452fa1c0377fc03
:400940007a02bfe3510354fa510454f97f104f380952fa540352f954023df900b0223dfa00b01d52fc530650303f0652fc0101530650003f0652fc530652fb530781485293
:40098000fa110052f931801980d0263df700b0213df80ab01c56060152037353065202735307510601015403510709005402800456060052fc540152f70852f80852020809
:4009c0005203087c091638fe18530618530751065408510754075009130852073180530450801a04c01d5201530652005307510601015401510709005400520801303f0655
:400a0000801b5201530652005307510601015401510709005400520801573f0652f70852f8085202085203087c091618540318540238fe3d0200bf803d0300bf7b3d060024
:400a4000a0195201530652005307510601015401510709005400502d3f065201530652005307510601ff5401510709ff540050003f0652fc5405803d520553063e06540641
:400a80005205530652045307510601015405510709005404520153053e053f065201530652005307510601ff5401510709ff540052063f065201530752053a07cfbb52fcc6
:400ac000530652fb530738f7207f30303030303030303030303030303030303030303030303030303030303030303030303030303030303030303030303030303030303008
:400b000030303030303030303030303030303030303030303030303030303030303030303030303030303030303030303030303030303030303030303030303030303030b5
:400b40003030303030303030303030303030303030303030303030303030303030303030303030303030303030303030303030303030303030303030303030303030303075
:400b80003030303030303030303030303030303030303030303030303030303030303030303030303030303030303030303030303030303030303030303030303030303035
:400bc00030303030303030303030303030303030303030303030303030303030303030303030303030303030303030303030303030303030303030303030303030303030f5
:020000040010ea
:020000040020da
:02000000f366a5
:00000001ff
