:4000000080673030303030307e3030307e3030307e3030307e3030307e3030307e3030307d02ea7e7d032d7e7e3030307e3030307e3030307e3030307e3030307e303030ff
:4000400030303030303030303030303030303030303030303030303030303030303030307e3030307e303030711062e38770ef62e33841fefb50094e62e33855f80055f942
:4000800000711062e00270ef62e338627105627505627905627d057c028350005505093c0509a0053f058ff8500157be5505003c0500a00b08283f05187509008ff2711001
:4000c00070ef62e000711062e00070ef62e2007c06268fff50107f303030303030303030303030303030303030303030303030303030303030303030303030303030303034
:4001000030303030303030303030303030303030303030303030303030303030303030303030303030303030303030303030303030303030303030303030303030303030bf
:40014000303030303030303030303030303030300001001000020020270025c72600230021c722006028660063056500e600e700d600b000b100b200b333b433b533b6000a
:40018000b855b900ba10bb33bc33bd00be00ff24212511264520212111224461006900600062006733683363006600d100d300d000d200e192e200df31de02dd00ff70ef49
:4001c00062000071106200336201cc70ef6203cc620233711062020062030070ef62010062040071106204006205ff70ef6207ff620600711062060062070070ef6205002b
:40020000620800711062087f62098070ef620b80620a007110620a00620b0070ef620900620c007110620c00620d0070ef620f00620e007110620e00620f0070ef620d00e7
:40024000621000711062100062110070ef621300621200711062120062130070ef621100621400711062140062150070ef621700621600711062160062170070ef621500a6
:4002800070ef7f55060055077f5508807c02937c01be7f1070ef500067500157587c02ae5001675001578f7c02ae70ef207f380210084f56fc00d00456fc01182070ef6204
:4002c000e30010082839ffa01f4f48fc01a003711054fd18207509001008284f59fd610018207509008fd738fc7f7e43e1017f41e1fe7f4323017f4123fe7f60217f602206
:400300007f5d227f4f5d22084123fe71105d210862210070ef5d205d22085200602271105201602170ef4323011838fe7f7e43e1027f41e1fd7f4327017f4127fe7f60254a
:400340007f60267f5d267f4f5d26084127fe71105d250862250070ef5d245d26085200602671105201602570ef4327011838fe7f081028b00420187f903c201875dff27489
:400380008fef303132333435363738394142434445460867676767210fffe7901918210fffe090127f4b9fea5b9fe77f5200a0069004758ff87f905f0867676767210f90e4
:4003c0003818210f40404090307f904b0867676767210f900918210f40404090017f082606805106600818210f29102a066008530640218f530660087f082606802e062001
:400400005106600818210f29302a06600853064021af530660087f08260680510660082607f051077110600870ef2e064051066008401057ff2e06505106600840405d08ea
:40044000082606c0510660084040402e06505106600840402606c051066008182108a00479bfd3202e077f51077110600870ef187f2607802e077f26088051077110600850
:400480005108600970ef50fa906350fa905f50039f4c5052905750039f44905f905d905b50039f3a505a904550029f32505a903d50089f16505a903550019f0e505a902dbb
:4004c00050069f06500e9f02502c9efe50089efa500c9ef650039ef2505a90117f80c094d4210310fff74f03ff209ede7f900c78bffc7f08193a7c010101010871105de030
:4005000070ef21073905d006ffe978bffe187f1059009fcd203dfe00b005500080113dfe06d00752fe15fe8006500617fe059e867bffbfe27f4f1052fd59fc9fa4203dfada
:4005400000b005500080113dfa06d00752fa15fa8006500617fa059e5d7bfbbfe27f210308ff7a03009e633dfe00b005502080133dfe09d00952fe7856fe00800617fe087b
:4005800050079e3218787bffbfd77f4f52fd210308ff4a03fc9e333dfa00b005502080133dfa09d00952fa7856fa00800617fa0850079e0218787bfbbfd77f4f0808504056
:4005c0009e0856000156010852003b01d0055000800350ff9de07b01bfef77003d0009bfe51818500c9de37f0010181c1e1f1f001008040201004f3803540250409dcb569a
:40060000000056010852003d0200b005ffda8003ffdd9da27b01bfee77003d0007bfe438fd500c9da57f104f3810560300560200560100560000560500560400107c04710a
:40064000207c06f580a777010f000050e8130152003180530250831a02d09256010056000077030f020050c6130352023180530250801a02d01f5603005602003d0400b005
:400680000e3d0500b00956050156040080075605005604003d0400b0133d0501b00e5202085203087c07be38fe800c5202085203087c075638fe500008500a08520208524e
:4006c00003085a040604065105085104087c08d638fa10570250007c04e1205a040604061051050851045c187c03ac208f598fff38f0208fff107c02f37c0336205001100d
:40070000575208281875090028207353045d0222046002500110575608281875090028207353045d0222046002500110575008281875090028207353045d0222046002506d
:400740000110575408281875090028207353045d02220460027f104f5001105750082818750900285304205d022a0460025001105754082818750900285304205d022a04c6
:400780006002500110575208281875090028207353045d0222046002500110575608281875090028207353045d022204600252fc107c02fe2052fc107c034120207f104f0b
:4007c000500110575008281875090028207353045d0222046002500110575408281875090028207353045d02220460025001105752082818750900285304205d022a04600b
:40080000025001105756082818750900285304205d022a04600252fc107c02fe2052fc107c034120207f1050007c034150007c02fe207f104f5001105750082818750900c5
:40084000285304205d022a046002500110575208281875090028207353045d022204600252fc107c02fe20207f104f5001105754082818750900285304205d022a046002c9
:40088000500110575608281875090028207353045d022204600252fc107c034120207f104f7c08a6207f50005301530255001066fc6cfb6b016b0251011bfa51021bf9c0d8
:4008c00009530252fa1c0177fc7a00bfe3510154fa510254f97f104f380952fa540352f954023df900b0223dfa00b01d52fc530450303f0452fc0101530450003f0452fc03
:40090000530452fb5305814852fa110052f931801980d0263df700b0213df80ab01c56060152037353045202735305510401015403510509005402800456060052fc540179
:4009400052f70852f8085202085203087c089f38fe18530418530551045408510554075009130852073180530250801a02c01d520153045200530551040101540151050986
:40098000005400520801303f04801b5201530452005305510401015401510509005400520801573f0452f70852f8085202085203087c089f18540318540238fe3d0200bf42
:4009c000803d0300bf7b3d0600a0195201530452005305510401015401510509005400502d3f045201530452005305510401ff5401510509ff540050003f0452fc54058024
:400a00003d520553043e0454065205530452045305510401015405510509005404520153033e033f045201530452005305510401ff5401510509ff540052063f045201534e
:400a40000552053a05cfbb52fc530452fb530538f7207f303030303030303030303030303030303030303030303030303030303030303030303030303030303030303030c9
:400a80003030303030303030303030303030303030303030303030303030303030303030303030303030303030303030303030303030303030303030303030303030303036
:400ac00030303030303030303030303030303030303030303030303030303030303030303030303030303030303030303030303030303030303030303030303030303030f6
:400b000030303030303030303030303030303030303030303030303030303030303030303030303030303030303030303030303030303030303030303030303030303030b5
:400b40003030303030303030303030303030303030303030303030303030303030303030303030303030303030303030303030303030303030303030303030303030303075
:020000040010ea
:020000040020da
:02000000ec749e
:00000001ff
